:020000040000FA
:10000000187401201D03000085790000F14E0000E6
:100010007D790000C70A000021C200001A6B4D0064
:10002000D88786780000000000000000E9A40000E6
:100030002921000000000000CD7F0000E5B900008C
:10004000E5530000F553000005540000155400006E
:10005000255400003554000045540000555400005C
:10006000655400007554000085540000955400004C
:10007000A5540000B5540000C5540000D55400003C
:10008000E5540000F554000005550000155500002A
:100090002555000035550000455500005555000018
:1000A0006555000075550000855500009555000008
:1000B000A5550000B5550000C5550000D5550000F8
:1000C000E5550000F95500000D56000021560000CE
:1000D00035560000495600005D560000715600007C
:1000E0008556000099560000AD560000C15600002C
:1000F000D5560000E9560000FD56000011570000DB
:1001000025570000395700004D5700006157000087
:1001100075570000895700009D570000B157000037
:10012000C5570000D9570000ED57000001580000E6
:1001300015580000295800003D5800005158000093
:1001400065580000795800008D580000A158000043
:10015000B5580000C9580000DD580000F1580000F3
:1001600005590000195900002D590000415900009F
:1001700055590000695900007D590000915900004F
:10018000A5590000B9590000CD590000E1590000FF
:10019000F5590000095A00001D5A0000315A0000AC
:1001A000455A0000595A00006D5A0000815A00005B
:1001B000955A0000A95A0000BD5A0000D15A00000B
:1001C000E55A0000F95A00000D5B0000215B0000B9
:1001D000355B0000495B00005D5B0000715B000067
:1001E000855B0000995B0000AD5B0000C15B000017
:1001F000D55B0000E95B0000FD5B0000115C0000C6
:10020000255C0000395C00004D5C0000615C000072
:10021000755C0000895C00009D5C0000B15C000022
:10022000C55C0000D95C0000ED5C0000015D0000D1
:10023000155D0000295D00003D5D0000515D00007E
:10024000655D0000D15E0000BD6200008D630000AE
:10025000816600005F0300005F0300005F03000091
:1002600005680000156B0000956D00009D6F000093
:10027000B1700000A5720000C5740000DD750000BB
:10028000DFF810D000F054FB00480047610E010079
:10029000AFF30080187401200246D2E84F0F411CD2
:1002A000C2E8431F03B1F8E77047024652E8000F67
:1002B000411C42E8001303B1F8E770470246D2E858
:1002C0004F0FC2E8431F03B1F9E77047024652E8F7
:1002D000000F42E8001303B1F9E77047024652E805
:1002E000000F830103D3BFF32F8F0020704700F06E
:1002F0000040084342E8000303B1F0E770470246BC
:1003000052E8000F800103D2BFF32F8F0020704707
:1003100042E8001303B1F3E70120704710484FF0A3
:10032000770101600F484FF0770101600E484FF4EC
:10033000885101600A484FF07601016009484FF08A
:10034000760101600948804709480047FEE7FEE75B
:10035000FEE7FEE7FEE7FEE7FEE7FEE7FEE7FEE775
:10036000040805400C0805400008054001BB0000DA
:10037000810200002DE9F05F0546002092469B4671
:1003800088460646814640241BE0284641464746AB
:10039000224600F005F953465A46C01A914110D33F
:1003A00011461846224600F0ECF82D1A67EB0108BA
:1003B0004F4622460120002100F0E3F817EB000928
:1003C0004E41201EA4F10104DFDC484631462A4696
:1003D0004346BDE8F09F00000649074A08685043BD
:1003E00043F2390210440860400870470149086030
:1003F00070470000DC85FF1F6D4EC64107F0EABD67
:10040000FFFFFFFFFFFEFFFFFFFFFFFFFFFFFFFFFD
:10041000FFFFFFFFFFFFFFFFFFFFFFFFFFFFFFFFEC
:1004200040EA01039B0703D009E008C9121F08C076
:10043000042AFAD203E011F8013B00F8013B521EF6
:10044000F9D27047D2B201E000F8012B491EFBD26D
:1004500070470022F6E710B513460A4604461946CF
:10046000FFF7F0FF204610BD421E12F8013F002B9F
:10047000FBD111F8013B02F8013B002BF9D1704789
:1004800030B505462A460B4612F8010B13F8014B0E
:1004900008B1A042F8D01CB1002802D06D1CF1E7D1
:1004A000284630BD10B5044604E00B7800F8013B47
:1004B00003B1491C521EF8D2204610BDCAB2401EDC
:1004C00010F8011F8A4202D00029F9D1002070479C
:1004D000421C10F8011B0029FBD1801A704710B58F
:1004E000002200E0521C835C8C5CA34201D1002BF3
:1004F000F8D1D8B2E1B2401A10BD30B504460020A0
:10050000034600E05B1C934203D2E05CCD5C401BE1
:10051000F8D030BD10B54843044610F0F5FF002870
:1005200005D00021002C02D0641E0155FAE710BD51
:1005300000F0004230F000400AD0C10D01F56071BA
:10054000C0F3160042EA0151C20840071143704748
:1005500000200146704730B50B460146002020229E
:10056000012409E021FA02F59D4205D303FA02F5C0
:10057000491B04FA02F52844151EA2F10102F1DC20
:1005800030BD202A04DB203A00FA02F10020704737
:100590009140C2F1200320FA03F3194390407047C1
:1005A000202A04DB203A21FA02F00021704721FAC8
:1005B00002F3D040C2F1200291400843194670472F
:1005C0002DE9FE4F804681EA0300C00F0C460090E3
:1005D00021F0004123F00045B8EB0200A94105D20B
:1005E0004046214690461C460B46024623F00040FA
:1005F000104347D0270DC7F30A00C3F30A510290F6
:10060000401A019040286BDAC3F3130040F4801BBA
:100610000098924620B10023D2EB030A63EB0B0B48
:1006200001985946C0F140025046FFF7AAFF06461E
:100630000D4650465946019A00F08CF910EB08001F
:100640006141002487EA115284EAE7731A4340D0DB
:10065000009A62B3019A012A4FEA075215DC001B87
:1006600061EB02014FF0004202EA0752CDE900427D
:10067000001C41F5801132462B4600F08CF903B086
:10068000BDE8F08F40462146F9E7001B61EB02010F
:10069000001C41F5801300185B412018A2F50017DB
:1006A00047EB030140EAD570B6196D4111E06D08C2
:1006B0004FEA360645EAC0754FEA0752001B61EB68
:1006C0000201001C41F5801149084FEA3000001971
:1006D000514132462B4603B0BDE8F04F00F04CB913
:1006E0000098012240000023D0EB020263EBE0738C
:1006F000009821464FEAE074B8EB000061EB04017A
:10070000E9E783F000435BE781F0004158E72DE91A
:10071000FE4F81EA030404F0004421F000410094FC
:100720004FF0000B23F0004350EA01045ED052EA80
:1007300003045BD0C3F30A54C1F30A552C44A4F25A
:10074000F3340194A0FB0254C1F3130141F480116E
:10075000C3F3130343F4801301FB024400FB034E75
:10076000840A970A44EA815447EA8357A4FB07683E
:1007700002958D0A05FB07854FEA932C04FB0C5468
:100780002705029D4FEA065847EA1637B5EB0805DC
:100790006EEB070C870E920E47EA811742EA83122E
:1007A000A7FB0201B6EB0B0164EB00042B0D43EA3F
:1007B0000C335E1844EB1C50DA465146E7FB02014D
:1007C000C5F313044FEA0B3343EA14534FEA0432E0
:1007D000019C43EA0603A4F10C040294009CCDE9B9
:1007E00000B400F0D8F803B0BDE8F08F0020014657
:1007F000F9E72DE9F04D81EA030404F0004B21F004
:10080000004514464FF0000A23F0004150EA05026B
:1008100020D054EA01021DD0C5F30A570246C5F3A1
:100820001303C1F31300C1F30A5640F4801543F4D7
:100830008013A7EB0608101BD64608F2FD3873EBB1
:10084000050002D308F1010801E092185B41B8F1FC
:10085000000F03DA00200146BDE8F08D00204FF4C0
:100860008011064684460EE0171B73EB050705D37F
:10087000121B63EB050306434CEA010C49084FEADF
:10088000300092185B4150EA0107EDD152EA0300B3
:1008900012D082EA040083EA0501084305D0101B48
:1008A000AB4106D20122002306E000224FF00043B4
:1008B00002E06FF0010253101AEB06004CEB0851F6
:1008C00010EB0A0041EB0B01BDE8F04D00F054B80D
:1008D000C1F30A52C1F3130140F2FF3341F4801116
:1008E0009A4202DA00200146704740F233439A42AE
:1008F000A2F2334202DC5242FFF752BEFFF741BE82
:1009000030B5041E71F1000404DB4FF00044404296
:1009100064EB0101141E73F1000405DB1C464FF06B
:100920000043524263EB0403994208BF904230BD3A
:10093000064C074D06E0E06840F0010394E807002C
:1009400098471034AC42F6D3FFF79EFCA85501003F
:10095000C8550100202A06DBCB17203A41FA02F0E5
:1009600043EAE07306E041FA02F3D040C2F120020C
:10097000914008431946704710B5141E73F10004E6
:1009800008DA401C41F1000192185B411A4301D181
:1009900020F0010010BD2DE9F04D92469B4611B1AB
:1009A000B1FA81F202E0B0FA80F220329046FFF70D
:1009B000E8FD04460F4640EA0A0041EA0B015346AF
:1009C0005A46084313D0114653EA010019D0C8F122
:1009D00040025046FFF7E4FD05460E465046594694
:1009E0004246FFF7CEFD084305D0012004E0204633
:1009F0003946BDE8F08D0020054346EAE0762C43F9
:100A000037430A986305E40AA0EB08000022FD0AB8
:100A100044EA47540A3002D500200146E9E70105BF
:100A200010196941DDE9084500196941BDE8F04D3B
:100A3000A2E770B58C1810F8015B15F0070301D11F
:100A400010F8013B2A1106D110F8012B03E010F831
:100A5000016B01F8016B5B1EF9D12B0705D4002354
:100A6000521E0DD401F8013BFAE710F8013BCB1AF6
:100A7000921C03E013F8015B01F8015B521EF9D5EB
:100A8000A142D8D3002070BD002808D090F846209D
:100A9000012303FA01F122EA010180F846107047B0
:100AA0000246002092F84620012303FA01F10A428F
:100AB00000D0012070470421002802D001210170DC
:100AC00000210846704710B5AFF3008010BD00004C
:100AD000104900280AD001280DD0022810D0032880
:100AE00013D091F8410000F00100704791F83C00EC
:100AF00000F00100704791F83C00C0F3C00070475F
:100B000091F83C00C0F34010704791F83C00C0F3EE
:100B1000801070470040054008B500210091002278
:100B2000254BB3F8FE134AF2015C41EA0C01A3F82D
:100B3000FE1300281CD093F8360020F0010083F843
:100B4000360009220020FFF7C3FF012831D00098AA
:100B5000401C00900098B0F5805FF3D3B3F8FE031B
:100B600020F0010040F42540A3F8FE03104608BD24
:100B700093F8260010F0070F10D0D3F8000110F002
:100B8000800F0FD093F82A0010F0010F08D093F8CF
:100B9000360040F0010083F83600DFE70122DDE790
:100BA0000122DBE793F8360040F0010083F83600BD
:100BB000D4E70022D2E700000040054008B500213C
:100BC000009100221C4BB3F8FE134AF2015C41EA8B
:100BD0000C01A3F8FE1300281CD093F82A0020F083
:100BE000010083F82A0009220220FFF771FF012883
:100BF0001FD00098401C00900098B0F5805FF3D3A0
:100C0000B3F8FE0320F0010040F42540A3F8FE03F2
:100C1000104608BD93F8260000F00700052806D00E
:100C200093F82A0040F0010083F82A00E8E7012247
:100C3000E6E70022E4E700000040054000282DD050
:100C40001749B1F8FE224AF201531A43A1F8FE22D5
:100C50000278531E0A6863F31F720A600279531EFA
:100C60000A6863F31B620A60027A531E0A6863F320
:100C700017520A608289531E0A6863F310220A60C1
:100C8000007C421E086862F304000860B1F8FE02AE
:100C900020F0010040F42540A1F8FE02704700005A
:100CA000004105400A49B1F8FE234AF202531A43B3
:100CB000A1F8FE230A8A60F303020A82B1F8FE0358
:100CC00020F0020040F42540A1F8FE037047000028
:100CD000004005400A49B1F8FE224AF201531A4386
:100CE000A1F8FE220A6860F3C7120A60B1F8FE029A
:100CF00020F0010040F42540A1F8FE0270470000FA
:100D00000041054010B485B04FF0000CCDF810C084
:100D10002A4B196803915968029199680191D96821
:100D2000009127491961274A92F8261001F007011E
:100D3000052901D005280CD123491960C912596031
:100D40009960D9600499491C04910499B1F5007F18
:100D5000F8D3B2F8FE134AF201542143A2F8FE136D
:100D600092F8261060F3020182F82610B2F8FE0312
:100D700020F0010040F42540A2F8FE03CDF810C099
:100D80000498401C04900498B0F5007FF8D30398B1
:100D9000186002985860019898600098D8600B48D5
:100DA0001861CDF810C00498401C04900498B0F568
:100DB000007FF8D305B010BC0AF03EBE00800440AE
:100DC0000100A5A500400540EEFAFFFF0000A5A523
:100DD0000A49B1F8DA234AF201531A43A1F8DA2397
:100DE0000A7860F307120A70B1F8DA0320F0010004
:100DF00040F42540A1F8DA03704700002440054084
:100E000030B485B04FF0000CCDF810C0324A1168F4
:100E100003915168029191680191D16800912F4925
:100E20001161002854D02E4B93F8261001F00701D1
:100E300005290CD12B491160C91251609160D16014
:100E40000499491C04910499B1F5007FF8D3B3F8D3
:100E5000FE134AF201542143A3F8FE138178C478AB
:100E6000457941EA04110479240244EA0534214316
:100E7000847941EA04414478007841EA045141EA26
:100E8000006141EA00701862B3F8FE0320F001002F
:100E900040F42540A3F8FE03CDF810C00498401C90
:100EA00004900498B0F5007FF8D30398106002987E
:100EB0005060019890600098D0600B481061CDF8A8
:100EC00010C00498401C04900498B0F5007FF8D33B
:100ED00005B030BC70470000008004400100A5A5AB
:100EE00000400540EEFAFFFF0000A5A508B500216F
:100EF00000910022254BB3F8FE134AF2015C41EA4F
:100F00000C01A3F8FE1300281CD093F8320020F047
:100F1000010083F8320009220120FFF7D9FD0128E2
:100F200032D00098401C00900098B0F5805FF3D359
:100F3000B3F8FE0320F0010040F42540A3F8FE03BF
:100F4000104608BD93F8260000F0070003280BD0D8
:100F5000D3F8000110F0800F08D093F8320040F071
:100F6000010083F83200E3E70122E1E793F82A0069
:100F700010F0010F06D093F8320040F0010083F822
:100F80003200D5E70122D3E70022D1E70040054037
:100F900000281DD00F4A11884AF2015319431180CD
:100FA0000D4990F800C00B786CF3C7130B7090F8E4
:100FB00001C00B786CF386130B708378087863F3A9
:100FC00005100870108820F0010040F425401080C2
:100FD00070470000FE4305401044054000B502463E
:100FE000507800F020F80346107800F01CF843EA2F
:100FF0000010C0B200BD30B50446A01CFFF7EEFFE4
:1010000005462046FFF7EAFF45EA002030BD30B52F
:101010000446201DFFF7EFFF05462046FFF7EBFFD4
:1010200045EA004030BD612802D45738C0B270474D
:10103000412802D43738C0B270473038C0B2704748
:1010400030B583B00D460478002C00D10124012C6A
:1010500005D000242C7003B04FF0011030BD1248B1
:10106000012202700020009001908DF800208DF880
:1010700005206A464FF40041012006F091FE6A46C1
:101080004FF48071002006F08BFE00231A464FF4C7
:101090000041012006F024FF00231A464FF480711E
:1010A000184606F01DFFD5E78CEE00200278407848
:1010B00042EA00208001401EFDD1087000487047C0
:1010C00001000200094A00211170094B4AF2015245
:1010D0001A80084A138823F002031380064A1388F3
:1010E00023F0020313800170012070478CEE002072
:1010F000FC3B05407C3C0540203C054010B4421CB4
:1011000012F8013B002B0DD012F801CB1CF0020F9E
:1011100004D01CF0100F02D0121D00E0121D5B1E47
:10112000002BF1D100230B704B70101A022110BC60
:1011300041EA004070472DE9F04102787F2A03D050
:10114000BDE8F04100F092B801F8012B421C561C9A
:10115000107808704F1C4FF00215441E0AD3394610
:10116000304600F083F8054406EB104680B2074491
:10117000641EF4D22846BDE8F081000002780548DC
:10118000002A04D0012A02D0FF220A7070470022F0
:101190000A7070470100020010B50B4600240021C0
:1011A000092834D006DC052831D2DFE800F03030E1
:1011B00030301200FC282AD004DCF02810D0F128AE
:1011C00025D113E0FD2822D0FE281DD0FF281ED1F6
:1011D00015E0062422460F491846FFF721F916E0CC
:1011E0003120187001205870022410E01970B020CE
:1011F0005870712098700B20D870042407E04020AC
:1012000018705970022402E008201870012420464A
:1012100010BD00006F4201000078FF220A70401CE0
:10122000012141EA00407047FF2008704FF0011093
:10123000704710B4FF220A700121012410F8012B1D
:10124000531E0ED3027800F1010C02F03F0000B9EA
:101250004020C01DC2080CEB02001144491C5B1E5B
:10126000F0D244EA014010BC7047000010B502788B
:10127000A2F180031F2B02D800F074F810BD0A7091
:101280004C1C10F8011B1E2964D2DFE801F00F1777
:101290001B22515559635D292D63636363633135A7
:1012A000393D45494D636363636363410078611C65
:1012B000FFF772FF207000F1021010BD2146FFF70A
:1012C0005DFF44E0264A012111702146FFF7B8FE78
:1012D0003DE02349002008702046FFF7F3FE36E08A
:1012E0002146FFF7E3FE32E0204600F04FF82EE003
:1012F000214600F089FB2AE0214600F04BFB26E066
:10130000214600F00DFC22E0214600F04BF81EE0E3
:10131000214600F057F81AE02146FFF78AFF16E051
:101320002146FFF779FF12E02146FFF77DFF0EE02F
:10133000214600F0C7FC0AE0214600F097FC06E0D9
:10134000214600F09DFC02E0214600F0D1FC00F1B6
:10135000011010BDFF2004F8010C4FF0011010BD6A
:101360004085FF1F4FF00112037801F8013B10F890
:10137000013B803B06D1044A0078012802D1582065
:101380000870521C104670470100020010B5044658
:10139000002011F069FC0120607000202070022004
:1013A00010BD0000007800F00302531C044A1376BD
:1013B000C0F380005076002008704FF00110704795
:1013C0008CEE00202DE9F05F00220A7001F1010A85
:1013D00001254FF001090178441CB1F1010840D307
:1013E000DFF888B014F8017B07F03F0000B9402017
:1013F000C01DC60817F0800F0AD01D494AF20150DF
:101400000880BBF8000020F00200ABF8000009E003
:1014100017494AF201500880BBF8000040F0020072
:10142000ABF8000052462146384609F061F8B8F1A1
:10143000000F09D10E494AF201500880BBF80000A4
:1014400040F00200ABF8000017F0800F03D06D1CD5
:10145000B244B14402E03444A819451CB8F1010873
:10146000C0D249EA0540BDE8F09F0000203C05409D
:10147000FC3B05402DE9F04F85B002460492002068
:10148000029003918C1CE94900234B708046002197
:101490000191511C4D1C91F80090B9F1000F00F022
:1014A0006F8115F8016B16F0020F00F0FC80B8F1A7
:1014B000000F4CD0DFF878A3BAF8107006F01100D6
:1014C000012808D0DFF8648369460E2009F07CF813
:1014D00002280FD014E0DFF854B36946304609F013
:1014E00073F802280ED17F1E0CD39BF8011000293F
:1014F000F3D007E07F1E03D398F801100029E3D052
:101500004FF00008012840F03B8100992170611CD8
:10151000009A120A01F8012B009A120C01F8012B13
:10152000009A120E0A704C1CB8F1000F0FD016F082
:10153000800F0CD0DAF808102170621C0B0A02F838
:10154000013B0B0C02F8013B090E1170541C16F004
:10155000100F49D028786978EA7840EA0120A97804
:10156000090441EA026140EA010B2D1DB048B0F8C0
:1015700012A016F0010F0FD0078A0021304609F0A3
:1015800023F8022805D17F1E03D3A84949780029F2
:10159000F3D0012840F0F480A548078A6946304618
:1015A00009F012F8022805D17F1E03D39F4949781C
:1015B0000029F3D001280CD19D49009A49691140B6
:1015C000594506D0BAF1010A03D398494978002950
:1015D000E2D09749009A49691140594501D040F03D
:1015E000100001287ED15BE0DFF844A2BAF8107049
:1015F00016F0010F25D0B8F1000F51D1DFF82CB251
:101600000021304608F0E0FF022805D17F1E03D3F9
:101610009BF801100029F3D0012863D116F0800F48
:101620000CD0DAF808102170621C0B0A02F8013B9A
:101630000B0C02F8013B090E1170541C4FF001080D
:101640002EE0DFF8E8B16946304608F0BDFF022819
:1016500005D17F1E03D39BF801100029F3D0012888
:1016600040D116F0800F0CD0DAF808102170621CFF
:101670000B0A02F8013B0B0C02F8013B090E11703A
:10168000541C00992170611C009A120A01F8012B68
:10169000009A120C01F8012B009A120E0A704C1CD1
:1016A0000021019160E0B8F1000F24D06048078A62
:1016B000DFF878A169460E2008F086FF022805D1E0
:1016C0007F1E03D39AF801100029F3D0012857D1C7
:1016D00000982070601C0099090A00F8011B00990D
:1016E000090C00E04CE000F8011B0099090E0170A4
:1016F000441C4FF0000828786978EA7840EA012015
:10170000A978090441EA0261084300902D1D16F0F2
:10171000200F03D046494861012025E0DFF810A1E1
:10172000BAF81070DFF804B16946304608F04CFF93
:10173000022805D17F1E03D39BF801100029F3D0A6
:1017400001281DD116F0800F0CD0DAF80810217096
:10175000621C0B0A02F8013B0B0C02F8013B090E5C
:101760001170541C012101910299491C02912F49C9
:10177000497829B9A9F10109B9F1000F7FF491AEB7
:10178000B9F1000F0FD015F8011B11F0020F04D0B2
:1017900011F0100F02D02D1D00E02D1DA9F101093F
:1017A000B9F1000FEFD1012832D1B8F1000F1FD0ED
:1017B0001F48068A1D4F69460E2008F005FF0228C3
:1017C00004D1761E02D379780029F4D001281FD1E4
:1017D00000992170611C009A120A01F8012B009AED
:1017E000120C01F8012B009A120E0A704C1C0FE02B
:1017F000019969B10E48068A0C4F00210E2008F0AD
:10180000E3FE022804D1761E02D379780029F4D0B1
:10181000039A02991170039948700398211A049849
:1018200005B0281A41EA0040BDE8F08F4085FF1F4F
:101830008CEE00202DE9F84F024600250020894655
:10184000CF1CDFF81CB100218BF80110511C0A7865
:101850004B7842EA032A891CBAF1000F75D091F83F
:1018600000804C1C3F4E18F0020F3ED018F0010FC4
:101870000ED0348A0021404608F0A6FE022805D189
:10188000641E03D39BF801100029F3D001285CD11A
:10189000BAF1010459D324B918F0010F01D04FF067
:1018A0000E08B6F810A06946404608F08DFE0228E2
:1018B00006D1BAF1010A03D39BF801100029F2D036
:1018C000012842D100993970791C009A120A01F856
:1018D000012B009A120C01F8012B009A120E0A70CB
:1018E0004F1C6D1C641ED6D22FE0AAF1010A20788D
:1018F0006178E27840EA0120A178090441EA0261B6
:1019000008430090241D1748068A6946404608F09F
:101910005BFE022805D1761E03D39BF80110002937
:10192000F3D0012811D16D1CBAF1010ADFD20D48A4
:10193000048A00210E2008F047FE022805D1641E0B
:1019400003D39BF801100029F3D089F80050290A2D
:1019500089F8011089F80200A7EB0900BDE8F88FAB
:101960004085FF1F8CEE002038B50C464178827808
:1019700041EA0222C17800790B0443EA0060104377
:1019800000906946002008F01FFE00202070012012
:1019900038BD000010B40278437842EA032283780D
:1019A000C0781B0443EA006002431248002A09D0B1
:1019B000114C124B4FF0000CA24207D301225A7077
:1019C0005A6012E0FF220A7010BC704783F801C011
:1019D0000B4C1444B4FBF2F2022A04D9094CA4FBC8
:1019E0000242520800E001225A6081F800C010BC97
:1019F0007047000001000400006CDC028CEE002047
:101A0000FFD7B805ABAAAAAA2DE9F0410F46057881
:101A100044788278C17842EA01210279407912043F
:101A200042EA006041EA000614F0010F0CD035488C
:101A300015F0010F04D0018841F40041018003E05A
:101A4000018821F40041018014F0020F0CD02E48CF
:101A500015F0020F04D0018841F48071018003E089
:101A6000018821F48071018014F0800F06D0E8090C
:101A700010F0010F02D0002011F0F6F8DFF88CC052
:101A8000DFF88C80002386B32248864200D90646C0
:101A900006EB46008201204E716814F0010F04D05D
:101AA000BCF80000C00BA8421BD114F0020F06D0F6
:101AB000B8F80000C0F30020B0EB550F11D114F0BE
:101AC000040F02D0B3EB950F0BD114F0200F02D00E
:101AD000B3EB551F05D114F0800F06D0B3EBD51F23
:101AE00003D07068401A9042D7D3BCF80000C00BF6
:101AF000B8F80010C1F3002140EA410038700748EF
:101B0000BDE8F08114380540043805401038054020
:101B100000380540C0C62D00001000E0010006009E
:101B200070B50D460478411C002C01D14FF480742F
:101B3000204609F02BFA00202870E01DC008401C48
:101B4000012141EA004070BD094800210170417047
:101B5000084A094B1268B3FBF2F2921E426001730D
:101B600064220282418241610122027641767047FD
:101B70008CEE00200081FF1F00D8B8052DE9F04150
:101B8000384DE86910F0810F6AD0E86920F08100D3
:101B9000E861E8882989884262D0334E7F27002493
:101BA00006F50078A888A86106EB801000787E28EA
:101BB0001DD16A69A86906EB80110F70401CA861ED
:101BC000082800D1AC616888A96981420AD1E86916
:101BD00010F0810FFBD0E86920F08100E86112F07D
:101BE000800F04D106EB811000787E28E2D068894E
:101BF00008EB8011A88806EB8010FFF79CFAA888F4
:101C0000401CA880A888082800D1AC802889401CE6
:101C100028816889401C68816889082800D16C8106
:101C2000E889401CE8812878B0B1E889298A88428F
:101C300012D0A889411CA981A861A989082900D1CD
:101C4000AC81298A491C29822C7008EB8012002162
:101C5000402308460AF0ACFAE88829898842A1D1D5
:101C6000BDE8F0814485FF1FA8EE0020034A1278EA
:101C7000012A01D0FFF742BAFFF7FCBB8CEE00202F
:101C800010B504460E48007801280BD000200870DB
:101C9000487088700320E17811F0020F06D040F4FC
:101CA000802010BD2046FFF7C5FDF4E76178A278DB
:101CB00041EA0221042202EB810140EA014010BD09
:101CC0008CEE0020084A03781373437890F802C022
:101CD00043EA0C231382C378007943EA0020508240
:101CE00000200870014870478CEE002001000500BC
:101CF00010B5064A1278012A05D0FF20087001208D
:101D000040F4A02010BDFFF72FFEF9E78CEE002075
:101D100000EB8110C16D137821F003011943C165F7
:101D2000C16D537821F00C0141EA8301C165C16D99
:101D3000937821F0100141EA0311C165C16DD37898
:101D400021F0200141EA4311C165C16D137921F0F1
:101D5000400141EA8311C165C16D537921F08001D1
:101D600041EAC311C165C16D937921F4407141EA23
:101D70000321C165C16DD37921F4806141EA8321DA
:101D8000C165C16D137A21F4006141EAC321C165C7
:101D9000C16D527A21F4805141EA0231C165704728
:101DA0002DE9F0010023614C94F800C0BCF1000F54
:101DB00003D0BDE8F001012070474FF0010C84F81A
:101DC00000C0C5690CFA01FC25EA0C060025002EAE
:101DD0007DD0C66916F0010F4FF00A061ED0E9B19A
:101DE000876C3F0CD0F86880B6EB184F16D3D0F84C
:101DF0006880B7EB184F11D9C76917F0010F0DD0E4
:101E00005B1C9BB2B3F5A04F04D92570BDE8F0016F
:101E100009207047C76917F0010FF1D1C36913F0AA
:101E2000020F21D001291FD0D0F888301B0CD0F828
:101E3000A870B6EB174F17D3D0F8A870B3EB174FB5
:101E400012D90023C76917F0020F0DD05B1C9BB29B
:101E5000B3F5A04F04D92570BDE8F0010920704703
:101E6000C76917F0020FF1D1C36913F0040F21D035
:101E700002291FD00023D0F8C8703F0CD0F8E880AA
:101E8000B6EB184F16D3D0F8E880B7EB184F11D93E
:101E9000C76917F0040F0DD05B1C9BB2B3F5A04FC0
:101EA00004D92570BDE8F00109207047C76917F013
:101EB000040FF1D1C36913F0080F23D0032921D0F7
:101EC0000021D0F808311B0CD0F8287100E019E08F
:101ED000B6EB174F16D3D0F82861B3EB164F11D9D4
:101EE000C36913F0080F0DD0491C89B2B1F5A04F9A
:101EF00004D92570BDE8F00109207047C36913F0CB
:101F0000080FF1D13AB1012A0BD1C1690CF00F02CF
:101F10001143C16105E0C1690F2222EA0C021140A0
:101F2000C1612570BDE8F00100207047D884FF1F13
:101F300010B40023002907D0012905D0022903D0BD
:101F4000032901D004230FE04FF0010C0CFA01FC2F
:101F50006AB11031012404FA01F1012A0CD0022ADD
:101F60000ED0032A11D0042310BC184670474169D3
:101F700041EA0C014161F7E7426911434161F3E72E
:101F8000816941EA0C018161EEE782691143816157
:101F9000EAE7026861F300020260704770B5054627
:101FA0000E46144601212846FFF7F3FF05EB861382
:101FB000D86D20F48050D86560681864A0685864B3
:101FC000986C21886FF30900084398646188986CC5
:101FD00061F31F409864D86CA1896FF3090008432E
:101FE000D864D86CE1896FF3194040EA0140D864A5
:101FF000186D61696FF3130008431865218B186D24
:1020000061F31F501865586DE1696FF313000843C1
:102010005865218C586D61F31F505865206998658B
:1020200004F1240231462846BDE87040FFF770BE37
:102030008446002300200CEB81114A64D1F864C06F
:1020400094450BD05B1C9BB2B3F5805F01D909208E
:1020500000E04A64D1F864C09445F3D170478446E7
:10206000002300200CEB81110A64D1F860C0944574
:102070000BD05B1C9BB2B3F5805F01D9092000E057
:102080000A64D1F860C09445F3D1704784460023B8
:1020900000200CEB8111D1F848C062F31F4CC1F84D
:1020A00048C0D1F868C0B2EB1C4F11D05B1C9BB28A
:1020B000B3F5805F01D9092005E0D1F848C062F38B
:1020C0001F4CC1F848C0D1F868C0B2EB1C4FEDD12D
:1020D00070470000890001F18041A0F1804301F5C3
:1020E0008031B3F5A62305D0044B984201D1C1F845
:1020F00024287047C1F814287047000000340540B8
:1021000081B00849096842F21072B1FBF2F3421E35
:1021100006D300930098411E0091FBD2521EF8D2C4
:1021200001B07047D485FF1F10B5AFF3008010BD1C
:102130000B48017B007BC1F34001C0F380000844E1
:102140000849097BC1F3400108440749097BC1F3F1
:102150004001C84201D005F08DBB09F02BBC000046
:102160005091FF1F7091FF1F6091FF1F2DE9F043F9
:102170008DB08046149D894617461C46A8F18040C4
:10218000B0F5A62007D04FF400402D498F4205D16D
:102190004FF4F07604E04FF48040F6E740F2E316A7
:1021A0000421002C47D0EA05D20D44D114F0030FCE
:1021B00041D1012105F0CAFE01214046FFF7E9FEA9
:1021C00000200090039004900590069007900890DE
:1021D00009900A900B908021ADF80010690AADF8C3
:1021E000021007F12001019102948DF824000120D2
:1021F0008DF8250002208DF82A006A46494640469F
:10220000FFF7CCFE012249464046FFF7C9FD0222F6
:1022100049464046FFF78CFE032249464046FFF7F9
:1022200087FE0121480405F091FE324649464046AA
:10223000FFF750FF00210DB00846BDE8F083000015
:1022400000FC06402DE9F0438DB08046149D894680
:1022500017461C46A8F18040B0F5A62007D04FF4E1
:1022600000402D498F4205D140F2E11604E04FF4C1
:102270008040F6E74FF4F2760421002C47D0EA05BF
:10228000D20D44D114F0030F41D1012105F05EFEBF
:1022900001214046FFF77DFE00200090039004904E
:1022A000059006900790089009900A900B90802165
:1022B000ADF80010690AADF80210019407F1200191
:1022C000029101218DF824108DF8250002208DF84F
:1022D0002A006A4649464046FFF760FE0122494609
:1022E0004046FFF75DFD022249464046FFF720FECB
:1022F000032249464046FFF71BFE0121480405F032
:1023000025FE324649464046FFF7E4FE00210DB067
:102310000846BDE8F083000000FC06400149086063
:10232000704700001404014002490A6860F300028B
:102330000A6070470C0401400549012803D0086871
:1023400040F0010002E0086820F0010008607047DA
:102350000404014004480168012903D143F210211B
:10236000016001607047000000040140F0B50746BD
:102370000023002400F088F83F20FFF7CFFF1A4E1B
:102380003068C0F30045306820F4803030600120B0
:10239000FFF7CAFF321D106820F070004030106057
:1023A00012483860111D086810F4807F09D1581C4C
:1023B00083B2B3F5805F00D90924086810F4807FE8
:1023C000F5D01020FFF7AAFF106820F07000106011
:1023D0000020FFF7A9FF306865F310403060FFF779
:1023E000B9FF2046F0BD00000804014078563412C1
:1023F00002490A6860F307120A6070470804014046
:102400002DE9F04107468846002400233F20FFF7CE
:1024100085FF1C4E3068C0F30045306820F48030E2
:1024200030600120FFF780FF321D106820F070003F
:1024300020301060C7F80080101D016811F4807F03
:1024400009D1591C8BB2B3F5805F00D9092401680A
:1024500011F4807FF5D0006810F0080F00D001243F
:102460001020FFF75BFF106820F070001060002064
:10247000FFF75AFF306865F3104030602046BDE832
:10248000F081000008040140034840F2231101607C
:1024900043F2102101607047000401402DE9F04F24
:1024A000ADF5417D002633962A962B962C962D96D7
:1024B0002E962F9630963196229623962496259620
:1024C00026962796289629960022F94D05EB0213A9
:1024D0005E609E60DE601E61521C042AF6D30022FC
:1024E000F34902EB420301EB83035E649E64DE6406
:1024F000521C082AF4D30146012234A80BF044FCF4
:102500000446200040F0CB81EA4F386810B10CF04F
:102510002DF93E6001213420FDF7FCFF386030B119
:10252000014633AB342234A80BF076FD04461CB1CF
:102530003398342840F0B381342215A83968FDF768
:102540006FFFDDA115A8FDF79BFF002800F0A78114
:10255000BDF86400022840F0A281BDF88000042884
:1025600000F29D8134A81C990BF0A5FA002840F0D8
:102570009681386810B10CF0F9F83E60BDF8800023
:1025800001214001FDF7C6FF3860BDF880200146FB
:10259000520133AB34A80BF03FFD002840F07F819F
:1025A000BDF880103398B0EB411F04D00DF5417D8C
:1025B0000120BDE8F08F0020002910D93A680723D8
:1025C00002EB4014D4F800C0BCF1010F04D1D4F8E0
:1025D00018C033EA0C0C10D0401C8142F0D8BDF872
:1025E0008400192880F05B81002434A81D990BF029
:1025F00062FA002840F0538147E00120686060687B
:10260000A860A068E8602069203028610121206965
:10261000FDF780FF054634A861680BF04CFA0028EE
:1026200040F03D8133AB294634A822690BF0F4FC1D
:10263000002840F034813398D0B1DFF88082D8F898
:10264000000018B10CF092F8C8F80060339801212E
:102650002030FDF75FFFC8F8000020229849FDF701
:10266000DFFED8F800002946339A2030FDF7D8FE67
:1026700000202169203101E0401C80B2B0EB910FB5
:10268000FAD328460CF072F8A9E7386810B10CF0BC
:102690006DF83E60BDF88400012100EB8000C000B1
:1026A000FDF738FF3860002800F0F980BDF884207D
:1026B000014602EB8202D20033AB34A80BF0ACFC33
:1026C000002840F0EC800021BDF88430002B22D996
:1026D00078480068C090C09801EB810200EBC2000E
:1026E0004268022A14D100F10805D0F800C095E82C
:1026F000A00FCDF828C0CDE910ABCDE90E890D971C
:102700000C950B92426A006A13921290601CC4B23C
:10271000491C8B42DFD8002C7ED0109898427BD287
:102720001098644C00EB8001206800EBC1014A68FE
:10273000032A71D101F10C05D1F808C095E8A00772
:102740000B68CDF808C0CDE9069ACDF8148004973F
:102750000395009301924A6A096A0992089110B19F
:102760000CF004F8266001210598FDF7D3FE2060E7
:10277000002851D034A804990BF09DF900284BD1C2
:1027800033AB059A34A821680BF046FC002843D1EE
:102790000599339881423FD14649D1F800900025F0
:1027A000012822AF0DF1A8081AD04FF0010B19F83B
:1027B000010B80B9002405F1010A424850F82410A9
:1027C0004846FDF78CFE18B948F824B047F824A015
:1027D000641C082CF1D36D1C3398401E8542E6D34F
:1027E000DFF8D0A0DAF8000018B10BF0BFFFCAF88C
:1027F000006001210F98FDF78DFECAF80000E8B3D4
:1028000034A80E990BF057F930B9DAF800000BF044
:10281000ADFFCAF8006000E031E001210F98FDF73C
:1028200079FECAF8000050B3014633AB34A80F9AC2
:102830000BF0F2FB18BB00253398B5EB101F4DD2FF
:10284000DFF86C904FF0010B0024DAF8000000EB89
:10285000051057F824200168914237D158F8241008
:10286000012933D104EB440109EB8101C1F844B0E3
:1028700042688A648268CA64CCB901E02EE00EE046
:10288000D9F808104068014434A80BF014F930B9A5
:1028900033ABC0220C4934A80BF0BEFB38B134A8CE
:1028A0000BF0ECF801200DF5417DBDE8F08F0DE057
:1028B00074F300206C85FF1F454C4600F080FF1F1D
:1028C0007085FF1F9085FF1FB4F20020641C082C48
:1028D000BBD36D1C3398B5EB101FB5D3DAF80000ED
:1028E00018B10BF043FFCAF8006034A80BF0C6F82B
:1028F0000020D8E701780A4A02EB810143780A6890
:1029000063F3C7120A6083780A6863F305120A60EA
:10291000C278086862F30100086000207047000078
:102920001010054004498A6D012303FA00F010439A
:102930008865002070470000001005400549496D7A
:10294000012202FA00F0014201D00120704700206C
:1029500070470000001005402DE9F04385B00026C7
:102960000496029603960096019602278DF8107041
:1029700001258DF811504FF003088DF812808DF865
:10298000137004A8FFF7B6FF009601968DF800605B
:102990008DF802506A460421052005F001FAADF8D1
:1029A00008700620ADF80A006648039002A80AF0F5
:1029B000F3FFBDF90A00002809DB00F01F0105FA4A
:1029C00001F14009800000F1E020C0F88012BDF95B
:1029D0000A00F024002804DB00F1E02080F8004425
:1029E00005E000F00F0000F1E02080F8144DBDF983
:1029F0000A00002809DB00F01F0105FA01F1400977
:102A0000800000F1E020C0F800118DF810508DF822
:102A100011508DF812808DF8137004A8FFF76AFF2B
:102A2000009601968DF800608DF802506A460221EA
:102A3000002005F0B5F9ADF808500720ADF80A0000
:102A40004148039002A80AF0A7FFBDF90A00002838
:102A500009DB00F01F0105FA01F14009800000F1D7
:102A6000E020C0F88012BDF90A00002804DB00F164
:102A7000E02080F8004405E000F00F0000F1E020C5
:102A800080F8144DBDF90A00002809DB00F01F0191
:102A900005FA01F14009800000F1E020C0F80011C2
:102AA0004FF00A098DF810908DF811508DF81280B2
:102AB0008DF8137004A8FFF71DFF009601968DF89E
:102AC00000608DF802506A464FF48061012005F0E5
:102AD00067F9ADF808900820ADF80A001B4803908C
:102AE00002A80AF059FFBDF90A00002809DB00F02E
:102AF0001F0105FA01F14009800000F1E020C0F853
:102B00008012BDF90A00002804DB00F1E02080F803
:102B1000004405E000F00F0000F1E02080F8144DC3
:102B2000BDF90A00002809DB00F01F0105FA01F1D8
:102B30004009800000F1E020C0F8001105B0BDE8B8
:102B4000F0830000057900000D780000A1770000F7
:102B500070B50E4EB46900F00FFA0546A5420BD2CF
:102B600001210B48FDF7AAFB30B93069401C3061E8
:102B700000210748FDF7A2FB294606F11800FDF7E2
:102B8000A5FB8442E6D1284670BD0000C0080F2096
:102B900000000F202DE9F04782B005460F4614468D
:102BA000002F02D0B4F5807F03D902B00020BDE829
:102BB000F087DFF8209199F80000A8B1A9F1800111
:102BC000C5F3C620095CC5F3022021FA00F000F02D
:102BD000010058B1FFF7BCFF8046A9B2EFF30580B2
:102BE00040B14FF4002006E00020F2E702B00120DF
:102BF000BDE8F087002040EA01063D46C4B1002749
:102C00004FF4E02A082C1CD8009701972246294649
:102C10006846FDF705FC0AEA0440304340F0407086
:102C20004146019B009A00F057F802B0BDE8F087DA
:102C300000231A464146304600F04EF802B0BDE887
:102C4000F08709F10100FDF727FB0AEA004928682F
:102C50000090686801900835083C46EA090040F099
:102C600080704146019B009A00F036F850B34FF651
:102C7000017049EA0006082C0FD92868009068689E
:102C800001900835083C41463046019B009A00F00F
:102C900023F8761CD0B1082CEFD800970197224674
:102CA00029466846FDF7BCFB26F47F4040EA042035
:102CB00040F000704146019B009A00F00DF802B010
:102CC000BDE8F08702B00020BDE8F08702B0002028
:102CD000BDE8F087C0080F202DE9FF5F89469246C6
:102CE0009B4607254FF0805000EAD906400000EAD5
:102CF0009A07400000EA5B082148FDF7D6FA21490F
:102D000000F07F0201EB0214C1094FF4700000EAE9
:102D10000150009908433043384340EA080040F02E
:102D2000406104F10C00FDF7D9FA10F0806F1DD05E
:102D300080F0806080F0004101F0004029F0004206
:102D4000024322602AF00042024362602BF00042FC
:102D50001043A06004F10C00FDF7D1FA48B10A4815
:102D6000FDF7A3FA04B00120BDE8F09F6D1E002D11
:102D7000C2D10648FDF799FA04B00020BDE8F09FE3
:102D8000C4080F2040000F20C8080F20CC080F20D7
:102D900010B500F0F7F8064C6061FFF7D9FE014668
:102DA000002304486269FFF797FF012010BD00006F
:102DB000C0080F2003FF00032DE9F003FF2901D213
:102DC000FF2A03D3BDE8F00300207047002500244C
:102DD000104F4FF0010808FA04F3034211D00B46DC
:102DE00093420ED805EBD30C03F0070917F80C60DB
:102DF00008FA09F946EA090607F80C605B1C9342D9
:102E0000F0D92035641C042CE5D3BDE8F003012083
:102E10007047000040080F202DE9F04107460E469C
:102E2000364C002525708021A4F18000FDF711FBB0
:102E3000182133480AF08CF83249236A01228B4268
:102E400003D021626080E26108E06188814202D0A3
:102E50006080E26102E0E069401CE061E069012815
:102E600033D00020284B03EB0011CA6812F0806FAA
:102E700002D022F04062CA60401C8028F3D3E0698F
:102E800001282CD000F084F88046B8F1000F19D04A
:102E9000FE2200213846FFF78FFFEF2211460F2058
:102EA000FFF78AFFFE2211460420FFF785FFFFF798
:102EB0004FFE014615486369E269FFF70DFF0EB149
:102EC00000F02AF84046BDE8F08165706560A560B5
:102ED000E5604FF400610C48FDF7BBFACFE700F066
:102EE00057F880465FEA080001D0094800E000205A
:102EF0006061A561256107480570C6E7C0080F201D
:102F00006C5401006B27A5E140000F2000FF000377
:102F100000B0710B00000F2010B50948017800299E
:102F200001D0012010BD01210170FFF711FE002327
:102F300001461A460348FFF7CFFE012010BD0000EE
:102F4000C0080F2001FF000310B5094801780029CF
:102F50000BD000210170FFF7FBFD002301461A464C
:102F60000448FFF7B9FE012010BD012010BD00008C
:102F7000C0080F2002FF00030148406870470000AE
:102F8000001000E00148006870470000D485FF1F72
:102F90000548016841F0807101600448016841F012
:102FA0000101016001207047FCED00E0001000E02D
:102FB00070B50646002505F1B000C0B204F0CEFEA3
:102FC000022004F0CBFE102004F0C8FE002430469E
:102FD00004F0D0FE601CC4B2802CF8D3681CC5B2CB
:102FE000082DE8D370BD2DE9F04105460E46174681
:102FF000FFF74AFA0120FFF79FF90024002F09D9B3
:1030000056F824102846FFF7FBF92D1D601CC4B2AA
:10301000BC42F5D3FFF79EF90020BDE8F081000027
:10302000DFF820C00CEB0003002909D00020002AA3
:1030300006D913F801CB01F801CB401C9042F8D31C
:10304000704700005E3B01007F2801D200207047DE
:103050000120704710B44FF0FF31A0F11A02652A29
:1030600001D2911F2BE0C2B2C0F30723A0F5214C7F
:10307000ACF1A10C40F65E04A4450CD2A3F1A10072
:10308000C0EB001101EB401002EB4000A1385F21C2
:1030900001EB400113E0A0F53040A13844F25E7C22
:1030A00060450CD2A3F1B000C0EB001101EB401061
:1030B00002EB4000A13840F2FB6101EB400110BC83
:1030C0000846704710B500290BDB022A09D1064CCF
:1030D000606818B10BF04AFB00206060002001F02E
:1030E0001DFC012010BD00006C81FF1F70B588B071
:1030F0000646002502950395224C2580658070695F
:1031000000283AD080470220049005908020069045
:1031100040200790002202216368187800B313F85A
:1031200002C0BCF1A00F0BD901F10C00C1B2802983
:1031300003D90E212088401C2080901C82B20CE014
:10314000BCF10A0F1CD0881DC1B2802903D9082107
:103150002088401C2080501C82B2985C0028DED160
:1031600000950195B4F90200074A00EB800003EBDB
:10317000800104AB304607F031F808B0012070BD83
:103180008121E2E76C81FF1FD43F010070B5154635
:10319000012600240B68012B28D10989C1F30B01FA
:1031A0001B2916D0134AA1F580733B3B04D0A1F52F
:1031B00080733D3B0FD019E05188491C0BB25380FE
:1031C000B2F900108B4200DD5180002100F014F8AC
:1031D0000CE002240AE05188491E09B251800029FE
:1031E00001DA00215180002100F006F805B12C60C1
:1031F000304670BD6C81FF1F2DE9F04188B04FF063
:103200000008CDF80880CDF80C80022104910591CA
:10321000802106914021079100220024194FB7F91F
:103220000250002D1EDD049EF1B2802916D2D7F87F
:1032300004C01CF80230A02B06D90C31C9B2802979
:103240000AD8921C92B207E00A2B19D0891DC9B284
:10325000802901D8521C92B28029EAD3611CCCB2D9
:10326000AC42E1DBCDF80080CDF80480796804AB96
:103270001144054A06F0B2FF08B00120BDE8F08114
:103280008021E5E76C81FF1FD43F010070B5044643
:103290000125002C0ED0B1F1FF3F03D0204601F0F4
:1032A00025FB01E02068006808B1A06004E06FF031
:1032B000010501E06FF00105012D01D10148046015
:1032C000284670BDC085FF1F2DE9F14FADF59D6DFE
:1032D000DFF8E09399F80100002875D1012089F802
:1032E000040099F80200002840F0D28000268246AF
:1032F000CDF8B4A2CDF8B0A289F805A0EEA20021C5
:10330000DDF8E80401F0B8FA0122F449AEA80AF0A9
:103310003BFD002840F0BC800B22F1A168460AF07A
:1033200033FD00287BD102221146EDA00AF068FB94
:10333000C9F80CA0C9F810A000270DF50C7BCDF83A
:1033400070A2CDF874A2CDF878A2CDF87CA2CDF809
:1033500080A2CDF884A2CDF888A2CDF88CA2CDF8B9
:1033600090A2CDF894A2CDF898A2CDF89CA2CDF869
:10337000A0A2CDF8A4A2CDF8A8A2CDF8ACA2ADAB86
:1033800040229CA9AEA80AF00BFF0446AD98064463
:103390009CADE81DFDF722FEB8B1012848D00428F5
:1033A00062D1402E07D205F10900FDF724FE00048A
:1033B000C9F80C0006E005F10900FDF71CFE000449
:1033C000C9F8100001274FE080E0E81CFDF713FE6C
:1033D000C9F81400681CFDF701FE80460024B8F10E
:1033E000000F0AD905EB44000930FDF7F7FD0BF893
:1033F0000400601CC4B24445F4D347B1D9F81000AE
:1034000070B1D9F814100844C9F810000027ACAB0B
:1034100042468CA968460AF09BFF044624E028E057
:10342000D9F81410D9F80C000844C9F80C00EDE7DD
:10343000D9F814001030C9F81400D9F8101029B1C7
:10344000D9F80C20891A0844C9F81400CDF8B4A2A0
:1034500068460AF013FB012089F80200A3A2642148
:10346000DDF8E80401F008FA1CB9AD9800287FF4F3
:1034700066AFAEA80AF002FB9FA0D9F81430D9F8C5
:103480001020D9F80C1008F031FFA1A008F02EFF91
:1034900088488078A8B19F4DD5F88C000EF034F89C
:1034A0008146002401228EA1AEA80AF06DFC88B1ED
:1034B00099A008F01BFFAEA80AF0E0FA48460BF00E
:1034C00055F97C48C178002900D101710DF2EC4D0D
:1034D000BDE8F08F96A008F009FF9B4900208860A6
:1034E0008C4DD5F884000FF001FF06464FF001081F
:1034F0000020AC906F49D5F88C00944A4969B1FB23
:10350000F0F1A2FB0121C908484387B2002E7AD10D
:103510000021AEA80AF0CFFA0446002C73D1AB46C6
:10352000DBF88C000DF0F0FFAB90A2460025DFF831
:1035300084B15EE07748ADAB4946D0F88C20AEA8A8
:103540000AF06AFD044620004FD1AD9800284CD007
:1035500029467FA008F0CAFEB5FBF7F007FB105024
:10356000A8B94FF47A70DBF814106843B0FBF1F09F
:1035700080B24CF6CD414843C00C0090DBF80C0003
:1035800077A243190021DDF8E80401F075F97A48C3
:10359000D0F8980050B1DBF80C0049462844AD9AA9
:1035A0000FF010FF08B34FF0000829E0DBF80C0023
:1035B000AD9A2844AB990FF0EBFAB0B10020AD9A68
:1035C000002A0FD9AB9919F80030095C8B4206D05C
:1035D0004FF000080020AC904FF0010A02E0401CC0
:1035E0009042EFD3BAF1000F0AD14A48D0F88C00CC
:1035F0000544DBF81400854202D20EB9002C99D0A4
:10360000AB980BF0B3F846EA040050EA080035D155
:10361000AC9898BB0025DFF8FCB0DFF898A027E055
:10362000294656A008F062FEB5FBF7F007FB1050E4
:10363000A8B94FF47A70DAF814106843B0FBF1F0CF
:1036400080B24CF6CD414843C00C0090DAF80C0033
:103650004EA243190021DDF8E80401F00DF9DAF873
:103660000C0028440FF02AFE0646DBF88C000544C7
:10367000DAF81400854201D2002ED1D046EA0400C7
:1036800050EA080014D10021AEA80AF014FA04464A
:103690000025DFF880B0DFF81CA0B0E0ADAB4946F4
:1036A000AEA8DBF88C200AF0B7FC044629467BE084
:1036B000ADE00000E880FF1FBFAACABCBDE2CEF6A5
:1036C000484558B2A2B1A3B4E6D2BBB8F642494EBF
:1036D0002CD0E8D2AAB5E3CAB1BCE400349BFF1FEA
:1036E000303A2F74656D702E62696E00BDE2CEF6C1
:1036F000B3C9B9A60000000046413D253038782006
:1037000053413D25303878206C656E3D25780000AA
:103710000D0A0000B4F2002062696E2066696C65D3
:10372000206F70656E206661696C65640A00000038
:1037300062696E2066696C65206F70656E207375B6
:1037400063636573730A0000A8F20020CDCCCCCC73
:103750007265616420616464723D25780A0000002E
:10376000D4A4BCECB2E93A3078253038780ABDF8F8
:10377000B6C83A256425250074F30020657261738C
:103780006520616464723D25780A0000B2C1B3FD12
:10379000B5D8D6B73A3078253038780ABDF8B6C8EB
:1037A0003A256425250000007FA0AD9A08F09EFD13
:1037B000B5FBF7F007FB1050A8B94FF47A70DAF8B0
:1037C00014106843B0FBF1F080B24CF6CD41484391
:1037D000C00C0090DAF80C007AA243190021DDF841
:1037E000E80401F049F8AD9A32B1DAF80C00494624
:1037F00028440FF0A3FD0646DBF88C000544DAF8F8
:103800001400854203D216B9002C3FF447AF46EAB4
:10381000040050EA080079D10021AEA80AF04BF963
:10382000044620007CD1DFF8B4A1DAF88C000DF05A
:103830006BFE83460025DFF8A8A14EE06748ADABDC
:103840004946D0F88C20AEA80AF0E6FB04462000DA
:103850003FD1AD98E8B3294662A008F047FDB5FB1B
:10386000F7F007FB105040BB4FF47A70DAF81410F1
:103870006843B0FBF1F080B25E49D1F8981071B1A5
:103880004CF6CD414843C00C0090DAF80C005AA227
:1038900043190021DDF8E80400F0EEFF0DE04CF6DE
:1038A000CD414843C00C0090DAF80C0059A24319EE
:1038B0000021DDF8E80400F0DFFF4E48D0F8980062
:1038C00088B1DAF80C0049462844AD9A0FF07AFD29
:1038D00006464248D0F88C000544DAF814008542C8
:1038E0001BD2C6B119E0DAF80C0059462844AD9A4B
:1038F0000FF04EF90020AD990029EAD919F80020FF
:103900001BF800309A4202D00126E2E708E0401C92
:103910008842F3D3DDE7002C90D058460AF026FF0A
:103920000FF048FD56EA040003D041488068B0B16A
:1039300022E02B4D01246C71012009F0AAF9B8F1A5
:10394000000F06D03BA140F2F23001F0ABFAAC71AF
:10395000B1E541A140F2F23001F0A4FAF7E72048C6
:10396000C07848B10AF0CCFF034641A20021DDF83F
:10397000E80400F081FF12E02EB143A140F2F230E2
:1039800001F090FA0BE02CB148A140F2F23001F0C6
:1039900089FA04E04FA140F2F23001F083FA1049B5
:1039A0000020887187E50000777269746520616482
:1039B00064723D25782C72656164203D2025780A6B
:1039C00000000000D0B4C8EB3A3078253038780ACF
:1039D000BDF8B6C83A25642525000000B4F20020E1
:1039E000E880FF1F0A0A7265616420616464723DA9
:1039F00025780A0074F30020BAAFCAFDD0A3D1E93C
:103A00003A3078253038780ABDF8B6C83A256425AA
:103A100025000000BBD8B6C1D0A3D1E93A30782543
:103A20003038780ABDF8B6C83A256425250000006C
:103A3000A8F20020CCE1CABE3A5E5F5E0AB3CCD0E9
:103A4000F2C6A5C5E45E5F5E0ACEDED0E8C9D5D079
:103A5000B45E5F5E00000000CCE1CABE3A5E5F5E0D
:103A60000AC9D5D0B4B3C9B9A65E5F5E0000000034
:103A700057616974204D435520436F6E6E656374C2
:103A800065640A2578000000CCE1CABE3AA3A1A370
:103A9000A1A3A121210AC9D5D0B4CAA7B0DCA3A192
:103AA000A3A1A3A1535744B4EDCEF300CCE1CABE09
:103AB0003AA3A1A3A1A3A121210AC9D5D0B4CAA721
:103AC000B0DCA3A1A3A1A3A152454144B4EDCEF320
:103AD00000000000CCE1CABE3AA3A1A3A1A3A1218A
:103AE000210AC9D5D0B4CAA7B0DCA3A1A3A1A3A1C0
:103AF000414C4CB4EDCEF30010B500290DDB012A8A
:103B000002D0022A06D008E0002140F24C4001F029
:103B1000C9F902E0002000F001FF012010BD000003
:103B200070B5C6B004460E460AF0A2FE1B49886175
:103B3000A0F5F4101A4AA0F59060904201D31948FC
:103B400088616069002508B1804709E060680090DD
:103B500001950295002211462046236805F0FEFDDE
:103B6000CEB1022042900F20439080204490182034
:103B700045904FF480720C4902A8FCF751FC314685
:103B800002A8FCF771FC009542AB084A02A9204646
:103B9000019506F023FB46B0012070BDE880FF1FB1
:103BA00081A81201808D5B00F03F0100D43F01002D
:103BB0002DE9F041804615460127002448680C286D
:103BC00001D0A71E6EE00868394E012802D00228F5
:103BD0005DD067E00889C0F30B03354800220D2B48
:103BE00090F900100AD01B2B06D0A3F580703B384B
:103BF0003ED0022856D142E0022453E019B32C48AB
:103C00000129C0781BD0022921D003294AD1294992
:103C1000B069884208D200F5741000F51060B061F8
:103C2000884203D9B16101E02348B0610AF020FE67
:103C30000146B069814235D00EF06AF932E080F079
:103C40000100F0702EE001240A2070702AE0317922
:103C5000084201D0327125E0B07818B14046FFF734
:103C600033FB1FE015A140F2F23001F01BF919E01F
:103C7000481C40B23070042814DB327012E0481E39
:103C800040B2307000280DDA032030700AE00021C5
:103C9000404600F021F8F0783179084202D04046E1
:103CA000FFF712FB05B12C603846BDE8F08100003B
:103CB000E880FF1F002D310180841E00C3BBD1A10D
:103CC000D4F1CEC4BCFEA3ACBBF2CEC4BCFEC5E4F2
:103CD000D6C3B4EDCEF300002DE9F34FADF6440D9D
:103CE0004FF0000BCDF828B8CDF82CB80224CDF851
:103CF0003048CDF834483020CDF838080C20CDF8C5
:103D00003C080DF628050DF50363FD4AFDA1CDF82D
:103D100004B00095DDF8440806F0E6FA3220CDF84C
:103D200030083C20CDF83808DFF8E49399F800001B
:103D3000F0B1002001900DF50363F14AF5A1009563
:103D4000DDF8440806F0D0FA6E20CDF830081220D5
:103D5000CDF8380899F8000001280BD000200DF6A6
:103D600028010091019099F8030028B1ECA104E02A
:103D70000120DFE70120F2E7EAA10DF50363E04A45
:103D8000DDF8440806F0B0FACDF830480F20CDF841
:103D900034088020CDF838082420CDF83C084FF4B2
:103DA0008072E1490DF5E560FCF73AFB2F21DF4811
:103DB000FCF784FB002800F056822F21DB48FCF73B
:103DC0007DFB01460DF5E560FCF74EFBD848007819
:103DD000002800F04E8299F801000A2840F049823C
:103DE000D4A008F083FADBA26421DDF8440800F0D7
:103DF00043FD00250122DB490DF59D6009F0C4FF5C
:103E000018BBCDF8A4B40DF2A4434022191D0DF542
:103E10009D600AF001F9A0B9DDF8A4040A2810D3C6
:103E20009DF8A80430280CD19DF8A904782801D069
:103E3000582806D10DF2AA40FDF7E9F8C9F81C0090
:103E400001250DF59D6009F019FEC748FEF726FB18
:103E5000012400287ED1002D7CD0C448C0F800B0D9
:103E6000C0F804B0C0F808B0C0F80CB0C0F810B08A
:103E7000C0F814B0C0F818B0C0F81CB0C0F820B03A
:103E8000C0F824B0C0F828B0C0F82CB0C0F830B0EA
:103E9000C0F834B0C0F838B089F801B0B44A116D38
:103EA00029B1D9F81C30516D203319440160D16D0E
:103EB00029B1D9F81C30116E203319444160516F7B
:103EC00029B1D9F81C30916F203319448160D2F8A0
:103ED000801031B1D9F81C30D2F884102033194445
:103EE000C160D2F88C1031B1D9F81C30D2F89010E2
:103EF000203319440161D2F8981031B1D9F81C303F
:103F0000D2F89C10203319444161916E29B1D9F83F
:103F10001C30D16E203319448161D9F81C104B1C20
:103F2000C361944B1269D3F88C3003EB020C8C44C0
:103F3000C0F820C001EB420C9C44C0F824C002EB46
:103F4000010CC0F828C0C1620263D9F808104163AF
:103F5000836300E009E088A008F0C8F98EA264211C
:103F6000DDF8440800F088FC0EE089F801408EA0DE
:103F700008F0BCF90DB194A300E097A39AA2C82160
:103F8000DDF8440800F078FC99F80200002840F0C1
:103F900070810026CDF8B4B2CDF8B0B289F805B082
:103FA00096A20021DDF8440800F066FC01225F497A
:103FB000AEA809F0E9FE00287ED10B2298A1684640
:103FC00009F0E2FE002878D10222114694A009F0FF
:103FD00017FDC9F80CB0C9F810B000270DF50C7A20
:103FE000CDF870B2CDF874B2CDF878B2CDF87CB21D
:103FF000CDF880B2CDF884B2CDF888B2CDF88CB2CD
:10400000CDF890B2CDF894B2CDF898B2CDF89CB27C
:10401000CDF8A0B2CDF8A4B2CDF8A8B2CDF8ACB22C
:10402000ADAB40229CA9AEA80AF0BAF80446AD9800
:1040300006449CADE81DFCF7D1FFB0B1012849D082
:1040400004285CD1402E07D205F10900FCF7D3FF0C
:104050000004C9F80C0006E005F10900FCF7CBFFED
:104060000004C9F810000127E8E0E81CFCF7C3FFD2
:10407000C9F81400681CFCF7B1FF80460024B8F1B1
:10408000000F0AD905EB44000930FCF7A7FF0AF836
:104090000400601CC4B24445F4D347B1D9F8100001
:1040A00080B1D9F814100844C9F810000027ACAB4F
:1040B00042468CA9684601E0DBE0C4E00AF048F91A
:1040C0000446BBE0D9F81410D9F80C000844C9F82C
:1040D0000C00EBE7D9F814001030C9F81400D9F837
:1040E000101029B1D9F80C20891A0844C9F8140015
:1040F000CDF8B4B2684609F0C1FC012096E09DE01D
:10410000D43F0100C0EBCFDFC9D5D0B40000000020
:10411000E880FF1F5B4F70656E46696C655D00004F
:104120005B415D005B4D5D0000410100349BFF1F62
:104130009581FF1F737461727420706172736520C2
:10414000616C676F726974686D2053746172740A70
:1041500000000000BFAACABCBDE2CEF6464C4DCB63
:10416000E3B7A800349CFF1F349AFF1F9C99FF1FE0
:1041700074F30020B4F200207374617274207061D3
:1041800072736520616C676F726974686D20537516
:1041900063636573730A0000CBE3B7A8BCD3D4D8BC
:1041A000B3C9B9A600000000737461727420706115
:1041B00072736520616C676F726974686D204572F7
:1041C000726F720A00000000B5D8D6B7BDE2CEF615
:1041D000CAA7B0DC00000000CBE3B7A8BDE2CEF672
:1041E000CAA7B0DC00000000CBE3B7A8BCD3D4D88A
:1041F000CAA7B0DC2121210A25730000BFAACABCCE
:10420000BDE2CEF6484558B2A2B1A3B4E6D2BBB8DF
:10421000F642494E2CD0E8D2AAB5E3CAB1BCE400BC
:10422000303A2F74656D702E62696E0089F8020055
:1042300045A26421DDF8440800F01EFB1CB9AD98CE
:1042400000287FF4CDAEAEA809F018FC41A0D9F843
:104250001430D9F81020D9F80C1008F047F843A012
:1042600008F044F805E0212241A10DF5E560FCF7D6
:10427000D7F8CDF800B00DF50363464A0DF5E561BA
:10428000CDF804B0DDF8440805F0A8FF0520CDF80E
:1042900030083420CDF834082A25CDF838580C26BB
:1042A000CDF83C6899F8000002283BD000200DF6BC
:1042B000280401900DF50363364A37A10094DDF818
:1042C000440806F011F83720CDF83008CDF83858FA
:1042D000CDF83C683249D9F81800B0FBF1F231A1B1
:1042E0000DF5E36008F02CF899F8000003281BD0C6
:1042F000002001900DF50363264A0DF5E36100945B
:10430000DDF8440805F0F0FF6E20CDF830081220EB
:10431000CDF83808CDF804B0009499F8060028B11B
:1043200022A104E00120C2E70120E2E720A10DF56F
:104330000363184ADDF8440805F0D6FF0DF64C0D6E
:104340000120BDE8F08F0000BDE2CEF6B3C9B9A6EA
:104350000000000046413D253038782053413D257E
:10436000303878206C656E3D257800000D0A00001D
:10437000C0EBCFDFC9D5D0B4D2AAB6C0D5BC5344A8
:104380002CB2BBBFC9B9D2D4D8555342CAB9D3C3D2
:1043900000000000D43F01005B53746172745D0043
:1043A00040420F005B25644D487A5D005E5F5E0011
:1043B000235F230010B500291ADB022A18D100233D
:1043C0001A464FF40071184603F08AFD002209A135
:1043D000094809F0B3FC012208A10E4809F0D4FCF9
:1043E00001220DA1124809F0CFFC002000F096FA3E
:1043F000012010BD303A0000E885FF1F303A2F46FB
:104400006F6E744C69622F7A6831327831322E6265
:10441000696E0000508AFF1F303A2F466F6E744C51
:1044200069622F7A6831367831362E62696E000003
:104430002088FF1F10B500230A224FF40071184690
:1044400003F04EFD064809F019FB064809F016FB7B
:10445000002205A1104609F071FC012010BD0000EA
:10446000508AFF1F2088FF1F303A000070B51546A4
:10447000012600240B68012B05D0022B09D1002155
:1044800000F00CF805E00889C0F30B011B2900D1EE
:10449000022405B12C60304670BD000070B5CEB06E
:1044A000064600244894499402204A904B90802567
:1044B0004C9540204D902048204A690000684300F8
:1044C00008A807F023FF00944AAB1D4A08A930460C
:1044D000019405F083FE0AF013FA4FF47A71B0FBF1
:1044E000F1F11848A0FB01324FEA521CA0FB0C204E
:1044F0004209A2EB02100CEB80034FF46160B1FBA8
:10450000F0F082B2ACEB0C1001EB800000900EA139
:1045100002A807F015FF31204B904C950C204D90D0
:1045200048A800904AAB064A02A90194304605F01B
:10453000DBFE4EB0012070BD3480FF1FC05401006F
:10454000D43F0100898888885379735469636B3A32
:10455000253033643A253032643A25303264000025
:1045600010B5002904DB022A02D1002000F0D6F9A0
:10457000012010BD2DE9F04F89B004468B465D49FE
:104580000A2008705C48002606706069002801D087
:1045900080470BE060680196401E029600902068FC
:1045A0000022431E1146204605F0D8F80220049050
:1045B00005902068001F06906068001F07904F4D0F
:1045C0002E706E704FF480714D48FBF742FF4FF430
:1045D00080714C48FBF73DFF4FF480714A48FBF770
:1045E00038FFBBF1000F03D148A00068C5F80200F6
:1045F0004749484809F0C7FCDFF81C91002864D1FE
:10460000464F4FF0010807F5A676A6F5E07A55E08B
:10461000B87D002859D02878FF2206EB002007F14A
:104620001601FBF7FDFE387A10F0100F05D0287840
:104630003BA106EB0020FBF717FF287839A106EB1A
:104640000020FBF71DFF58B185F8018030492C4848
:10465000FBF70AFF287806EB00212948FBF704FF47
:10466000287832A106EB0020FBF70AFF58B185F845
:10467000018027492448FBF7F7FE287806EB002144
:104680002148FBF7F1FE387A10F0060F13D1287895
:1046900000EB800209EB820206EB00215160401C16
:1046A000C0B2287000EB800009EB80012148DAF8E5
:1046B000282005F0A9FB2878FF2806D2174901F524
:1046C0008C7009F0C3FD0028A2D0124809F0E8F967
:1046D0002878019018A31B4A04A9CDF8009015482A
:1046E00005F03CFB5946204600F0BEF809B0012019
:1046F000BDE8F08FE980FF1FEA80FF1F9481FF1F54
:10470000349AFF1F349BFF1F349CFF1F303A2F0049
:104710009681FF1FC09EFF1FF49E0020A89DFF1FD3
:104720002F0000002E464C4D000000002E41444456
:1047300052000000349DFF1FD1A1D4F1CEC4BCFEB5
:1047400000000000D43F01002DE9F0470746154660
:104750000126002448680C2801D0A61E6EE00868D7
:10476000012802D0022865D068E00889C0F30B0058
:10477000DFF8D4800D280ED01B280AD0A0F5807158
:1047800040463B39C06A4FF0140940D0022955D148
:104790002DE0022452E0D8F830002CA14068FBF74D
:1047A0006FFE50B1D8F8300041682948FBF75CFE35
:1047B00039463846FFF7DEFE40E0D8F8300025A144
:1047C0004068FBF75DFE30B9D8F8300023A140689F
:1047D000FBF756FE68B31E492248FBF745FED8F8A2
:1047E000300041681F48FBF73FFE022426E0002806
:1047F00008DD411E08F1100005F09EFAD8F83000DF
:10480000C0F808901049384605F014FB16E0D8F8B7
:104810002810491E884208DA411C08F1100005F0F2
:104820008BFAD8F83000C0F808900749384605F0F0
:1048300001FB03E00021384600F016F805B12C60BA
:104840003046BDE8F0870000349DFF1F2F000000B8
:104850009681FF1F2E484558000000002E6865789D
:1048600000000000349BFF1F10B5024905F0E2FA7A
:10487000012010BD349DFF1F0FB470B5C8B00646AF
:104880000D4607F027FD4E9CDCB1022144910F201C
:1048900045908020469024204790C90104A8FBF74A
:1048A000D8FD4FAB2246402104A807F05DFD002251
:1048B00003920092019244AB0B4A04A9304605F0E2
:1048C0008DFC306A80470AF01BF844190AF018F88A
:1048D000A04204D200BF0AF013F8A042FAD348B0B5
:1048E00070BC5DF814FB0000D43F010010B400243C
:1048F000002200280FD04368002B0CDD006850F820
:1049000022C0DCF800C08C4502D150F8224002E001
:10491000521C9342F3DC204610BC704710B5014690
:1049200001230F480268002A16D0D2F808C0DCF82C
:1049300008000024CCF8084058B19060406868B185
:10494000D0F804C0BCF1000F08D0D068E04703469F
:1049500004E06FF0010301E06FF00103184610BDA1
:10496000C085FF1F10B586B0044674210B48FBF7C5
:1049700070FD00200290039020680490606805900C
:10498000042007490091019006A30A4A02A903489E
:1049900005F0E4F906B0012010BD00001499FF1FD6
:1049A0005880FF1FD6F7B2CBB5A52D46756E632094
:1049B00053656C00D43F010010B5012A02D0022AD1
:1049C00025D027E0012000F00BF91348C06A30B170
:1049D00001280AD002280ED003281BD111E00021A3
:1049E00040F2EA3000F05EFA14E0002140F2EB30D1
:1049F00000F058FA0EE0002140F2F13000F052FAD7
:104A000008E006A140F2F23000F04CFA02E000208B
:104A1000FFF784FF012010BD1499FF1FCAC7B7F12B
:104A2000B9D8BBFAA3BF0ACFF2D7F3A1FBB2A6B69F
:104A3000AFB9D8BBFAA3ACCFF2D3D2A1FAB2A6B623
:104A4000AFB7B5BBD8A1A30010B5044608490022F2
:104A50004A678A67CA67C1F88020C1F884200120AC
:104A600000F0BEF80249204605F0E4F9012010BD2F
:104A70001499FF1F2DE9F041074615460126002431
:104A800048680C2801D0A61E37E00B68012B02D025
:104A9000022B2ED031E00889C0F30B010D290AD07A
:104AA0001B290AD0174AA1F580703B38D16A12D071
:104AB000022822D103E001241FE002241DE0002986
:104AC00004DD491E02F1100005F036F90D493846A3
:104AD00005F0B0F911E0906A401E814204DA491CE9
:104AE00002F1100005F028F90649384605F0A2F950
:104AF00003E00021384600F007F805B12C6030468D
:104B0000BDE8F0811499FF1F30B58BB005462B49E5
:104B1000284605F08FF92A4CDFED2A0A207898B153
:104B2000608800EE100AB8EE401A81EE200A10EEFE
:104B3000100AFBF7FDFC41EC100B23A153EC102BEA
:104B400008A807F0FDFB12E0608800EE100AB8EE3E
:104B5000401A81EE200A10EE100AFBF7E9FC41EC46
:104B6000100B1BA153EC102B08A807F0E9FB1A4807
:104B700000780F2811D0012000F032F85F20049057
:104B8000022005901E200690082007900020029029
:104B90000390207828B1012004E0002000F020F8E4
:104BA000ECE7002002A90091019004AB0B4A08A990
:104BB000284605F099FB0BB0012030BD1499FF1F6A
:104BC0005480FF1F00007A4443252E326600000007
:104BD000252E3266560000000280FF1FB0460100FD
:104BE0002DE9F0470026F025214F02222149DFF868
:104BF00088904FF007084FF47A7A4FF0E0240028AD
:104C00001AD00A613020C8600A604A608A6008468B
:104C1000FCF714F806F010FFD9F80000B0FBFAF02A
:104C2000401EB0F1807F05D2606187F8145DA661F7
:104C3000C4F81080BDE8F0870A610620C8600A60E9
:104C40004A608A600B48FBF7F9FF06F0F5FED9F8D9
:104C50000000B0FBFAF0401EB0F1807FEAD2606144
:104C600087F8145DA661C4F81080BDE8F0870000E5
:104C70000FE000E08899FF1FD485FF1F38B501467B
:104C8000124D286800281CD08468BCB16268AAB1A3
:104C9000D3689BB1C0686A4698472A680146D2F833
:104CA0000CC0626860461369009A984704462868F9
:104CB000C06840B1006A30B1804704E06FF0010085
:104CC000EBE76FF00104204638BD0000C085FF1FF0
:104CD00010B5044641210A48FBF7BBFB0848A0F188
:104CE000180108600020486008208860C8602068BB
:104CF00010380861606810384861012010BD00005C
:104D0000F099FF1F10B5002904DB022A02D1002010
:104D1000FFF704FE012010BD10B50446002913D092
:104D200040220C48FBF7BEFB0A49002081F84000F6
:104D300009F0E6FD084908600223084A08492046B0
:104D400005F0C4F8012010BD402206A10148FBF780
:104D5000A9FBEDE7F099FF1F4881FF1FD43F010039
:104D6000D899FF1F4E554C4C000000002DE9F04132
:104D700007461546012600240B68012B02D0022BA2
:104D800035D04FE00889C0F30B01294A294F4FF075
:104D9000000C936840F2EB300D2908D01B290ED08F
:104DA000A1F580713B391BD002293BD10FE00224D1
:104DB00099680968814235D187F800C032E0022441
:104DC0009968096881422DD187F800C02AE01AA1AC
:104DD0001B48FBF755FB28B31A490320087021E054
:104DE00015A11748FBF74CFBE0B102241AE012A111
:104DF0001348FBF745FB88B913A11148FBF740FBAB
:104E000060B9002007F045FF09F07AFD10490968F4
:104E1000401A40F6B831884200D9022400213846B1
:104E200000F018F805B12C603046BDE8F0810000B4
:104E3000C092FF1FEC80FF1FB9D8BBFA0000000032
:104E4000F099FF1F0080FF1FB5E7C1BFB5CD00007F
:104E50004881FF1F10B50223024A034905F036F8C6
:104E6000012010BDD43F0100D899FF1F70B5014645
:104E700001240B4D286800280DD082686AB1526861
:104E80005AB152684AB1C068904704462868C06861
:104E9000006A804701E06FF00104204670BD000009
:104EA000C085FF1F70B502460D4601240F4E3068C5
:104EB000002817D01146FFF719FD18B1816821B1FC
:104EC000241F11E06FF001040EE031688A688260EF
:104ED0008860406840B1426832B1C868294690474E
:104EE000044601E06FF00104204670BDC085FF1F3D
:104EF00010B5AFF3008010BD70B586B00546012136
:104F0000402003F039F8002330224FF48071012053
:104F100002F0E6FF002331224FF40071012002F07D
:104F2000DFFF184E0021304600F003F9304600F054
:104F300005F90024039405940495354602AA03A9B3
:104F4000284600F016F9042802D10399491C039160
:104F500010B103980728F1D98DF800404FF6FF7083
:104F6000ADF80200ADF804006946284600F0C6F826
:104F70000121284600F0AEF80121284600F0D9F8BA
:104F800006B070BD00E80440F0B4002300260224FF
:104F9000DFED4C2A00291BD0D2B1DFF82CC1DCF8A0
:104FA00020C04A4DCCF3023C2D6825FA0CFC0F685A
:104FB0000125BD40D1ED020A91ED011A016B11F0FE
:104FC000100F03D0016B01F003014E1C17B102E07A
:104FD000042370E0032400EE10CAB8EE412AB8EEB4
:104FE000400AC0EE021A00EE105AB8EE402A81EED6
:104FF000820A01EE904AF8EE600AB8EE612AF0EEFD
:10500000001A22EE213A02EE106AB8EE422A02EEAF
:10501000213A33EE202A70EE421AFCEEC00AB8EEB6
:10502000603A30EE430A10EE101AB1F17C5F06DBF5
:10503000B8EE600AF7EE000A30EE200A01E0B8EEA2
:10504000600AB4EEC20AF1EE10FA01D8042332E08D
:1050500011EE901A1E4CA14201DD04232BE0BCEEA0
:10506000C00A10EE101ABCFBF1F1B1FBF5F100EE35
:10507000101AF8EE410AB8EE400A70EEC00A00EECF
:10508000101AB8EE400AC0EE802AC16A67F31241D6
:10509000C162BCEEE10A10EE101A4FEA910CC16A2F
:1050A0006CF30401C16210EE101AA1EB910CC16AFD
:1050B0006CF30C21C16212B10BB9C2ED002AF0BC35
:1050C000184670470000000000400540D485FF1FCF
:1050D00000007842012904D0C16821F48061C160D8
:1050E0007047C16841F48061C1607047026A024B39
:1050F0001940114301627047DF56F0000022002979
:1051000014D0B1F802C083696CF31F438361B1F816
:1051100004C083696CF30F038361836823F0070382
:105120008360836809781943816000E00422104697
:105130007047026861F3000202607047016821F065
:1051400001010160016841F40041016000207047E5
:10515000026861F3082202607047026861F3492225
:105160000260704702460020D2690A4200D0012046
:10517000704710B5044600291CD0DCB1206820F02F
:1051800001002060206840F400402060206840F06A
:10519000010020602046FFF7F7FE216821F0400162
:1051A0002160216821F400412160216821F0010182
:1051B000216010BD042010BD2DE9F04707460C46C4
:1051C00015469946DFF84C800121404600F026F84C
:1051D0000021404600F022F84946404600F024F8FD
:1051E0000646A6B9F9B24B460022404600F055F8F3
:1051F000064666B90848418829444180681E81B244
:10520000601C00F0B7F82178404600F0E8F830461E
:10521000BDE8F08700E804405080FF1F026861F39A
:10522000CF3202607047000030B505460C46234679
:1052300000224FF40031284600F0BAF800280BD1C4
:1052400001212846FFF784FF23462846BDE8304069
:105250000122024900F0ACB830BD0000010002009C
:1052600030B505460C4604E010212846FFF73EFF06
:10527000641E10212846FFF775FF012801D1002C7C
:10528000F2D101212846FFF768FF23462846BDE8F2
:1052900030400122102100F08BB82DE9F041074683
:1052A0000E4615469846434601228021384600F0B6
:1052B0007FF8044604BB45EA4600C1B2384600F018
:1052C0008EF84DB1434600224FF48021384600F05D
:1052D0006FF8044644B10FE04346012208213846E6
:1052E00000F066F80446F5E74FF480613846FFF7B2
:1052F00039FF012800D101242046BDE8F0812DE9C5
:10530000F84107460D4616469846002400200090B6
:10531000002D1ED129E0434601228021384600F0AD
:1053200047F80446ACB90098295C384600F057F8B5
:10533000434601220821384600F03AF804464FF46B
:1053400080513846FFF70EFF012808D00098401C16
:1053500000900098B04209D0002CDCD006E04FF459
:1053600080513846FFF7C2FE00E004242046BDE825
:10537000F881000070B50D460B4C02460121204615
:10538000FCF76DFE094A01212046FCF751FE2A4632
:1053900001212046FCF77AFE2046BDE8704001223C
:1053A0001146FCF7FDBC00000034054024E8044031
:1053B00010B404460920D4F81CC00CEA010C012AE0
:1053C00001D1614502D052EA0C0C00D10020002826
:1053D00003D0002B01D05B1EEDE710BC704780F8B6
:1053E0002410704702480068002800D0004770472A
:1053F000B4BB002002484068002800D00047704736
:10540000B4BB002002488068002800D000477047E5
:10541000B4BB00200248C068002800D00047704795
:10542000B4BB002002480069002800D00047704744
:10543000B4BB002002484069002800D000477047F4
:10544000B4BB002002488069002800D000477047A4
:10545000B4BB00200248C069002800D00047704754
:10546000B4BB00200248006A002800D00047704703
:10547000B4BB00200248406A002800D000477047B3
:10548000B4BB00200248806A002800D00047704763
:10549000B4BB00200248C06A002800D00047704713
:1054A000B4BB00200248006B002800D000477047C2
:1054B000B4BB00200248406B002800D00047704772
:1054C000B4BB00200248806B002800D00047704722
:1054D000B4BB00200248C06B002800D000477047D2
:1054E000B4BB00200248006C002800D00047704781
:1054F000B4BB00200248406C002800D00047704731
:10550000B4BB00200248806C002800D000477047E0
:10551000B4BB00200248C06C002800D00047704790
:10552000B4BB00200248006D002800D0004770473F
:10553000B4BB00200248406D002800D000477047EF
:10554000B4BB00200248806D002800D0004770479F
:10555000B4BB00200248C06D002800D0004770474F
:10556000B4BB00200248006E002800D000477047FE
:10557000B4BB00200248406E002800D000477047AE
:10558000B4BB00200248806E002800D0004770475E
:10559000B4BB00200248C06E002800D0004770470E
:1055A000B4BB00200248006F002800D000477047BD
:1055B000B4BB00200248406F002800D0004770476D
:1055C000B4BB00200248806F002800D0004770471D
:1055D000B4BB00200248C06F002800D000477047CD
:1055E000B4BB00200348D0F88000002800D000475A
:1055F00070470000B4BB00200348D0F884000028A6
:1056000000D0004770470000B4BB00200348D0F82A
:105610008800002800D0004770470000B4BB00207D
:105620000348D0F88C00002800D0004770470000E5
:10563000B4BB00200348D0F89000002800D00047F9
:1056400070470000B4BB00200348D0F89400002845
:1056500000D0004770470000B4BB00200348D0F8DA
:105660009800002800D0004770470000B4BB00201D
:105670000348D0F89C00002800D000477047000085
:10568000B4BB00200348D0F8A000002800D0004799
:1056900070470000B4BB00200348D0F8A4000028E5
:1056A00000D0004770470000B4BB00200348D0F88A
:1056B000A800002800D0004770470000B4BB0020BD
:1056C0000348D0F8AC00002800D000477047000025
:1056D000B4BB00200348D0F8B000002800D0004739
:1056E00070470000B4BB00200348D0F8B400002885
:1056F00000D0004770470000B4BB00200348D0F83A
:10570000B800002800D0004770470000B4BB00205C
:105710000348D0F8BC00002800D0004770470000C4
:10572000B4BB00200348D0F8C000002800D00047D8
:1057300070470000B4BB00200348D0F8C400002824
:1057400000D0004770470000B4BB00200348D0F8E9
:10575000C800002800D0004770470000B4BB0020FC
:105760000348D0F8CC00002800D000477047000064
:10577000B4BB00200348D0F8D000002800D0004778
:1057800070470000B4BB00200348D0F8D4000028C4
:1057900000D0004770470000B4BB00200348D0F899
:1057A000D800002800D0004770470000B4BB00209C
:1057B0000348D0F8DC00002800D000477047000004
:1057C000B4BB00200348D0F8E000002800D0004718
:1057D00070470000B4BB00200348D0F8E400002864
:1057E00000D0004770470000B4BB00200348D0F849
:1057F000E800002800D0004770470000B4BB00203C
:105800000348D0F8EC00002800D0004770470000A3
:10581000B4BB00200348D0F8F000002800D00047B7
:1058200070470000B4BB00200348D0F8F400002803
:1058300000D0004770470000B4BB00200348D0F8F8
:10584000F800002800D0004770470000B4BB0020DB
:105850000348D0F8FC00002800D000477047000043
:10586000B4BB00200348D0F80001002800D0004756
:1058700070470000B4BB00200348D0F804010028A2
:1058800000D0004770470000B4BB00200348D0F8A8
:105890000801002800D0004770470000B4BB00207A
:1058A0000348D0F80C01002800D0004770470000E2
:1058B000B4BB00200348D0F81001002800D00047F6
:1058C00070470000B4BB00200348D0F81401002842
:1058D00000D0004770470000B4BB00200348D0F858
:1058E0001801002800D0004770470000B4BB00201A
:1058F0000348D0F81C01002800D000477047000082
:10590000B4BB00200348D0F82001002800D0004795
:1059100070470000B4BB00200348D0F824010028E1
:1059200000D0004770470000B4BB00200348D0F807
:105930002801002800D0004770470000B4BB0020B9
:105940000348D0F82C01002800D000477047000021
:10595000B4BB00200348D0F83001002800D0004735
:1059600070470000B4BB00200348D0F83401002881
:1059700000D0004770470000B4BB00200348D0F8B7
:105980003801002800D0004770470000B4BB002059
:105990000348D0F83C01002800D0004770470000C1
:1059A000B4BB00200348D0F84001002800D00047D5
:1059B00070470000B4BB00200348D0F84401002821
:1059C00000D0004770470000B4BB00200348D0F867
:1059D0004801002800D0004770470000B4BB0020F9
:1059E0000348D0F84C01002800D000477047000061
:1059F000B4BB00200348D0F85001002800D0004775
:105A000070470000B4BB00200348D0F854010028C0
:105A100000D0004770470000B4BB00200348D0F816
:105A20005801002800D0004770470000B4BB002098
:105A30000348D0F85C01002800D000477047000000
:105A4000B4BB00200348D0F86001002800D0004714
:105A500070470000B4BB00200348D0F86401002860
:105A600000D0004770470000B4BB00200348D0F8C6
:105A70006801002800D0004770470000B4BB002038
:105A80000348D0F86C01002800D0004770470000A0
:105A9000B4BB00200348D0F87001002800D00047B4
:105AA00070470000B4BB00200348D0F87401002800
:105AB00000D0004770470000B4BB00200348D0F876
:105AC0007801002800D0004770470000B4BB0020D8
:105AD0000348D0F87C01002800D000477047000040
